:100000000C9472000C9493000C9493000C94930045
:100010000C9493000C94F30E0C94C80E0C94930063
:100020000C9493000C9493000C9493000C94930004
:100030000C9493000C9493000C9493000C949300F4
:100040000C9493000C9493000C9493000C949300E4
:100050000C9493000C9493000C9493000C949300D4
:100060000C9493000C9493000C9493000C949300C4
:100070000C9493000C9493000C9493000C949300B4
:100080000C9493000C9493000C9493000C949300A4
:100090000C9493000C9493000C9493000C94930094
:1000A0000C9493000C9493000C9493000C94930084
:1000B0000C9493000C9493000C9493000C94930074
:1000C0000C9493000C9493000C9493000C94930064
:1000D0000C9493000C9493000C9493000C94930054
:1000E0000C94930011241FBECFEFD1E2DEBFCDBF31
:1000F00000E00CBF12E0A0E0B2E0EAECF9E300E0BF
:100100000BBF02C007900D92A439B107D9F713E0D5
:10011000A4E9B2E001C01D92A332B107E1F70E9449
:10012000D5180C94E31C0C940000CF93DF93CDB74B
:10013000DEB787E290E027E230E0F9012081286015
:10014000FC01208388E290E028E230E0F901208180
:10015000277FFC012083DF91CF910895CF93DF9318
:100160000F92CDB7DEB7198286E290E0FC01808164
:10017000898389818860898388E290E02981FC01F4
:1001800020830F90DF91CF910895CF93DF930F924B
:10019000CDB7DEB7198286E290E0FC0180818983C9
:1001A0008981877F898388E290E02981FC0120830F
:1001B0000F90DF91CF9108950F931F93CF93DF930B
:1001C000CDB7DEB76C970FB6F894DEBF0FBECDBFCC
:1001D0000E94AE0080E090E0A8E4B3E489839A83B3
:1001E000AB83BC8369817A818B819C8126E636E66C
:1001F00046E655E40E946C1CDC01CB018D839E8396
:10020000AF83B88711E06D817E818F81988520E072
:1002100030E040E85FE30E941E1B88230CF010E0F2
:10022000112329F081E090E09A87898746C011E088
:100230006D817E818F81988520E03FEF4FE757E405
:100240000E94681C18160CF010E0112361F16981FE
:100250007A818B819C8120E030E040E251E40E9471
:100260006C1CDC01CB01BC01CD010E948A1BDC01AE
:10027000CB019A87898712C080E791E09C878B87A2
:100280008B859C858C01C8010197F1F78C011C8737
:100290000B8789859A8501979A87898789859A85A9
:1002A000009751F717C06D817E818F8198850E94DC
:1002B0008A1BDC01CB019A87898789859A859E876D
:1002C0008D878D859E858C01C8010197F1F78C0182
:1002D0001E870D870E94C50080E090E0A8E4B3E48B
:1002E0008F87988BA98BBA8B6F85788989899A8932
:1002F00026E636E646E655E40E946C1CDC01CB019E
:100300008B8B9C8BAD8BBE8B11E06B897C898D892F
:100310009E8920E030E040E85FE30E941E1B8823B6
:100320000CF010E0112329F081E090E0988F8F8B82
:1003300046C011E06B897C898D899E8920E03FEF62
:100340004FE757E40E94681C18160CF010E01123C8
:1003500061F16F85788989899A8920E030E040E2EF
:1003600051E40E946C1CDC01CB01BC01CD010E9458
:100370008A1BDC01CB01988F8F8B12C080E791E044
:100380009A8F898F898D9A8D8C01C8010197F1F719
:100390008C011A8F098F8F89988D0197988F8F8B79
:1003A0008F89988D009751F717C06B897C898D894B
:1003B0009E890E948A1BDC01CB01988F8F8B8F89CD
:1003C000988D9C8F8B8F8B8D9C8D8C01C801019794
:1003D000F1F78C011C8F0B8F6C960FB6F894DEBF73
:1003E0000FBECDBFDF91CF911F910F9108950F9355
:1003F0001F93CF93DF93CDB7DEB7C057D0400FB672
:10040000F894DEBF0FBECDBF80E090E0A0E8BFE370
:1004100089839A83AB83BC8369817A818B819C8138
:1004200026E636E646E655E40E946C1CDC01CB016C
:100430008D839E83AF83B88711E06D817E818F812C
:10044000988520E030E040E85FE30E941E1B88238F
:100450000CF010E0112329F081E090E09A87898761
:1004600046C011E06D817E818F81988520E03FEF4D
:100470004FE757E40E94681C18160CF010E0112397
:1004800061F169817A818B819C8120E030E040E2DA
:1004900051E40E946C1CDC01CB01BC01CD010E9427
:1004A0008A1BDC01CB019A87898712C080E791E023
:1004B0009C878B878B859C858C01C8010197F1F700
:1004C0008C011C870B8789859A8501979A87898774
:1004D00089859A85009751F717C06D817E818F813C
:1004E00098850E948A1BDC01CB019A8789878985C0
:1004F0009A859E878D878D859E858C01F801319721
:10050000F1F78F011E870D8788E290E028E230E046
:10051000F90120812E7FFC01208388E290E028E20F
:1005200030E0F90120812D7FFC01208388E290E0FA
:1005300020E3FC01208388E290E028E230E0F9012A
:1005400020812460FC01208380E090E0A0EAB0E4F8
:100550008F87988BA98BBA8B6F85788989899A89BF
:1005600026E636E646E655E40E946C1CDC01CB012B
:100570008B8B9C8BAD8BBE8B11E06B897C898D89BD
:100580009E8920E030E040E85FE30E941E1B882344
:100590000CF010E0112329F081E090E0988F8F8B10
:1005A00046C011E06B897C898D899E8920E03FEFF0
:1005B0004FE757E40E94681C18160CF010E0112356
:1005C00061F16F85788989899A8920E030E040E27D
:1005D00051E40E946C1CDC01CB01BC01CD010E94E6
:1005E0008A1BDC01CB01988F8F8B12C080E791E0D2
:1005F0009A8F898F898D9A8D8C01C8010197F1F7A7
:100600008C011A8F098F8F89988D0197988F8F8B06
:100610008F89988D009751F717C06B897C898D89D8
:100620009E890E948A1BDC01CB01988F8F8B8F895A
:10063000988D9C8F8B8F8B8D9C8D8C01F8013197C1
:10064000F1F78F011C8F0B8F88E290E028E230E0F9
:10065000F90120812B7FFC01208380E090E0A0E85D
:10066000BFE38D8F9E8FAF8FB8A36D8D7E8D8F8DE5
:1006700098A126E636E646E655E40E946C1CDC01AD
:10068000CB0189A39AA3ABA3BCA311E069A17AA172
:100690008BA19CA120E030E040E85FE30E941E1B9C
:1006A00088230CF010E0112329F081E090E09EA354
:1006B0008DA346C011E069A17AA18BA19CA120E085
:1006C0003FEF4FE757E40E94681C18160CF010E04B
:1006D000112361F16D8D7E8D8F8D98A120E030E02A
:1006E00040E251E40E946C1CDC01CB01BC01CD0155
:1006F0000E948A1BDC01CB019EA38DA312C080E760
:1007000091E098A78FA38FA198A58C01C8010197AC
:10071000F1F78C0118A70FA38DA19EA101979EA3AD
:100720008DA38DA19EA1009751F717C069A17AA151
:100730008BA19CA10E948A1BDC01CB019EA38DA3EF
:100740008DA19EA19AA789A789A59AA58C01F801D8
:100750003197F1F78F011AA709A788E290E028E204
:1007600030E0F90120812E7FFC01208388E290E0B7
:1007700028E230E0F90120812D7FFC01208388E20E
:1007800090E020E3FC01208388E290E028E230E062
:10079000F90120812460FC01208380E090E0A0EA40
:1007A000B0E48BA79CA7ADA7BEA76BA57CA58DA524
:1007B0009EA526E636E646E655E40E946C1CDC0162
:1007C000CB018FA798ABA9ABBAAB11E06FA578A905
:1007D00089A99AA920E030E040E85FE30E941E1B4F
:1007E00088230CF010E0112329F081E090E09CAB0D
:1007F0008BAB46C011E06FA578A989A99AA920E022
:100800003FEF4FE757E40E94681C18160CF010E009
:10081000112361F16BA57CA58DA59EA520E030E09C
:1008200040E251E40E946C1CDC01CB01BC01CD0113
:100830000E948A1BDC01CB019CAB8BAB12C080E712
:1008400091E09EAB8DAB8DA99EA98C01C80101974B
:10085000F1F78C011EAB0DAB8BA99CA901979CAB4A
:100860008BAB8BA99CA9009751F717C06FA578A9EE
:1008700089A99AA90E948A1BDC01CB019CAB8BAB96
:100880008BA99CA998AF8FAB8FA998AD8C01F8016B
:100890003197F1F78F0118AF0FAB88E290E028E2B3
:1008A00030E0F90120812B7FFC01208380E090E083
:1008B000A0E8BFE389AF9AAFABAFBCAF69AD7AAD8B
:1008C0008BAD9CAD26E636E646E655E40E946C1CF0
:1008D000DC01CB019E01235C3F4FF90180839183B2
:1008E000A283B38311E0CE01CD96FC0160817181BA
:1008F0008281938120E030E040E85FE30E941E1B8C
:1009000088230CF010E0112349F0CE018F5B9F4F3C
:1009100021E030E0FC01318320836EC011E0CE0184
:10092000CD96FC01608171818281938120E03FEF4F
:100930004FE757E40E94681C18160CF010E01123D2
:1009400009F449C069AD7AAD8BAD9CAD20E030E0D3
:1009500040E251E40E946C1CDC01CB018E010F5B74
:100960001F4FBC01CD010E948A1BDC01CB01F801A5
:100970009183808327C0CE018D5B9F4F20E731E0BC
:10098000FC0131832083CE018D5B9F4FFC01808170
:1009900091818C01C8010197F1F78C01CE018D5B2B
:1009A0009F4FFC0111830083CE018F5B9F4F9E01FF
:1009B0002F5B3F4FF9012081318121503040FC01F4
:1009C00031832083CE018F5B9F4FFC018081918119
:1009D000009789F62EC08E010F5B1F4FCE01CD967A
:1009E000FC0160817181828193810E948A1BDC01FC
:1009F000CB01F80191838083CE018B5B9F4F9E01D9
:100A00002F5B3F4FF90120813181FC01318320832D
:100A1000CE018B5B9F4FFC01808191818C01C801CD
:100A20000197F1F78C01CE018B5B9F4FFC01118385
:100A3000008388E290E028E230E0F90120812E7FF7
:100A4000FC01208388E290E028E230E0F901208177
:100A50002D7FFC01208388E290E020E3FC012083CD
:100A600088E290E028E230E0F90120812460FC0176
:100A700020839E01295B3F4F80E090E0A0EAB0E434
:100A8000F90180839183A283B3838E01055B1F4F9D
:100A9000CE01895B9F4FFC016081718182819381CE
:100AA00026E636E646E655E40E946C1CDC01CB01E6
:100AB000F80180839183A283B383CE01855B9F4F2E
:100AC00011E0FC01608171818281938120E030E03E
:100AD00040E85FE30E941E1B88230CF010E0112306
:100AE00049F0CE01815B9F4F21E030E0FC01318372
:100AF000208374C0CE01855B9F4F11E0FC016081B3
:100B000071818281938120E03FEF4FE757E40E949B
:100B1000681C18160CF010E0112309F44DC0CE012A
:100B2000895B9F4FFC01608171818281938120E00C
:100B300030E040E251E40E946C1CDC01CB018E01EC
:100B4000015B1F4FBC01CD010E948A1BDC01CB0160
:100B5000F8019183808327C0CE018F5A9F4F20E7F1
:100B600031E0FC0131832083CE018F5A9F4FFC017D
:100B7000808191818C01C8010197F1F78C01CE0130
:100B80008F5A9F4FFC0111830083CE01815B9F4FE1
:100B90009E01215B3F4FF90120813181215030407E
:100BA000FC0131832083CE01815B9F4FFC0180815A
:100BB0009181009789F62FC08E01015B1F4FCE01F6
:100BC000855B9F4FFC0160817181828193810E94CE
:100BD0008A1BDC01CB01F80191838083CE018D5A01
:100BE0009F4F9E01215B3F4FF90120813181FC0124
:100BF00031832083CE018D5A9F4FFC0180819181EA
:100C00008C01C8010197F1F78C01CE018D5A9F4FDD
:100C1000FC011183008388E290E028E230E0F901D2
:100C200020812B7FFC0120839E012B5A3F4F80E0C7
:100C300090E0A0E8BFE3F90180839183A283B383AE
:100C40008E01075A1F4FCE018B5A9F4FFC016081C6
:100C500071818281938126E636E646E655E40E945C
:100C60006C1CDC01CB01F80180839183A283B383E8
:100C7000CE01875A9F4F11E0FC0160817181828112
:100C8000938120E030E040E85FE30E941E1B882350
:100C90000CF010E0112349F0CE01835A9F4F21E060
:100CA00030E0FC013183208374C0CE01875A9F4F0E
:100CB00011E0FC01608171818281938120E03FEF2E
:100CC0004FE757E40E94681C18160CF010E011233F
:100CD00009F44DC0CE018B5A9F4FFC016081718198
:100CE0008281938120E030E040E251E40E946C1C5C
:100CF000DC01CB018E01035A1F4FBC01CD010E94C4
:100D00008A1BDC01CB01F8019183808327C0CE01CF
:100D1000815A9F4F20E731E0FC0131832083CE01CF
:100D2000815A9F4FFC01808191818C01C8010197FC
:100D3000F1F78C01CE01815A9F4FFC011183008392
:100D4000CE01835A9F4F9E01235A3F4FF9012081C4
:100D5000318121503040FC0131832083CE01835A00
:100D60009F4FFC0180819181009789F62FC08E01F1
:100D7000035A1F4FCE01875A9F4FFC01608171813A
:100D8000828193810E948A1BDC01CB01F80191834F
:100D90008083CE018F599F4F9E01235A3F4FF90107
:100DA00020813181FC0131832083CE018F599F4FF7
:100DB000FC01808191818C01C8010197F1F78C01C0
:100DC000CE018F599F4FFC011183008388E290E090
:100DD00028E230E0F90120812E7FFC01208388E2A7
:100DE00090E028E230E0F90120812D7FFC01208392
:100DF00088E290E020E2FC01208388E290E028E293
:100E000030E0F90120812460FC0120839E012D59EE
:100E10003F4F80E090E0A0EAB0E4F9018083918345
:100E2000A283B3838E0109591F4FCE018D599F4F65
:100E3000FC01608171818281938126E636E646E677
:100E400055E40E946C1CDC01CB01F8018083918386
:100E5000A283B383CE0189599F4F11E0FC016081C9
:100E600071818281938120E030E040E85FE30E945D
:100E70001E1B88230CF010E0112349F0CE01855988
:100E80009F4F21E030E0FC013183208374C0CE010C
:100E900089599F4F11E0FC016081718182819381AA
:100EA00020E03FEF4FE757E40E94681C18160CF053
:100EB00010E0112309F44DC0CE018D599F4FFC0164
:100EC000608171818281938120E030E040E251E4D1
:100ED0000E946C1CDC01CB018E0105591F4FBC0127
:100EE000CD010E948A1BDC01CB01F8019183808334
:100EF00027C0CE0183599F4F20E731E0FC013183A9
:100F00002083CE0183599F4FFC01808191818C0108
:100F1000C8010197F1F78C01CE0183599F4FFC0165
:100F200011830083CE0185599F4F9E0125593F4F64
:100F3000F9012081318121503040FC01318320832F
:100F4000CE0185599F4FFC0180819181009789F6E0
:100F50002FC08E0105591F4FCE0189599F4FFC01AB
:100F600060817181828193810E948A1BDC01CB01A7
:100F7000F80191838083CE0181599F4F9E012559AD
:100F80003F4FF90120813181FC0131832083CE0163
:100F900081599F4FFC01808191818C01C80101978B
:100FA000F1F78C01CE0181599F4FFC011183008321
:100FB00088E290E028E230E0F90120812B7FFC01FB
:100FC0002083C059DF4F0FB6F894DEBF0FBECDBFF0
:100FD000DF91CF911F910F9108950F931F93CF939E
:100FE000DF93CDB7DEB72E970FB6F894DEBF0FBEF6
:100FF000CDBF80E090E0A0E8BFE389839A83AB8314
:10100000BC8369817A818B819C8126E636E646E63F
:1010100055E40E946C1CDC01CB018D839E83AF8361
:10102000B88711E06D817E818F81988520E030E066
:1010300040E85FE30E941E1B88230CF010E01123A0
:1010400029F081E090E09A87898746C011E06D81A0
:101050007E818F81988520E03FEF4FE757E40E9423
:10106000681C18160CF010E0112361F169817A8177
:101070008B819C8120E030E040E251E40E946C1CB6
:10108000DC01CB01BC01CD010E948A1BDC01CB013C
:101090009A87898712C080E791E09C878B878B8530
:1010A0009C858C01C8010197F1F78C011C870B8787
:1010B00089859A8501979A87898789859A85009776
:1010C00051F717C06D817E818F8198850E948A1BA0
:1010D000DC01CB019A87898789859A859E878D87D0
:1010E0008D859E858C01C8010197F1F78C011E87C3
:1010F0000D8788E20E94930881E00E94930886E0B1
:101100000E9493088EE00E94930880E80E94930852
:101110002E960FB6F894DEBF0FBECDBFDF91CF91F4
:101120001F910F9108950F931F93CF93DF93CDB726
:10113000DEB76E970FB6F894DEBF0FBECDBF8E8FB1
:101140008E8D89838981807F898388E290E028E27F
:1011500030E0F90120812F70FC01208388E290E0CB
:1011600028E230E0F90130812981232BFC01208322
:1011700088E290E028E230E0F90120812E7FFC0136
:10118000208388E290E028E230E0F90120812D7F81
:10119000FC01208388E290E028E230E0F901208120
:1011A0002460FC01208380E090E0A0EAB0E48A8320
:1011B0009B83AC83BD836A817B818C819D8126E684
:1011C00036E646E655E40E946C1CDC01CB018E83BA
:1011D0009F83A887B98711E06E817F818885998573
:1011E00020E030E040E85FE30E941E1B88230CF003
:1011F00010E0112329F081E090E09B878A8746C0A8
:1012000011E06E817F818885998520E03FEF4FE76F
:1012100057E40E94681C18160CF010E0112361F1CD
:101220006A817B818C819D8120E030E040E251E445
:101230000E946C1CDC01CB01BC01CD010E948A1B09
:10124000DC01CB019B878A8712C080E791E09D87F4
:101250008C878C859D858C01C8010197F1F78C01E5
:101260001D870C878A859B8501979B878A878A853E
:101270009B85009751F717C06E817F81888599857E
:101280000E948A1BDC01CB019B878A878A859B850C
:101290009F878E878E859F858C01F8013197F1F7A6
:1012A0008F011F870E8788E290E028E230E0F90185
:1012B00020812B7FFC0120838E8D8F708E8F8E8DF1
:1012C0008295807F8E8F88E290E028E230E0F901FD
:1012D00020812F70FC01208388E290E028E230E03A
:1012E000F90130812E8D232BFC01208388E290E0D0
:1012F00028E230E0F90120812E7FFC01208388E282
:1013000090E028E230E0F90120812D7FFC0120836C
:1013100088E290E028E230E0F90120812460FC01BD
:10132000208380E090E0A0EAB0E4888B998BAA8BC0
:10133000BB8B688979898A899B8926E636E646E6E9
:1013400055E40E946C1CDC01CB018C8B9D8BAE8B19
:10135000BF8B11E06C897D898E899F8920E030E008
:1013600040E85FE30E941E1B88230CF010E011236D
:1013700029F081E090E0998F888F46C011E06C8958
:101380007D898E899F8920E03FEF4FE757E40E94D7
:10139000681C18160CF010E0112361F16889798936
:1013A0008A899B8920E030E040E251E40E946C1C75
:1013B000DC01CB01BC01CD010E948A1BDC01CB0109
:1013C000998F888F12C080E791E09B8F8A8F8A8DDA
:1013D0009B8D8C01C8010197F1F78C011B8F0A8F3F
:1013E000888D998D0197998F888F888D998D009719
:1013F00051F717C06C897D898E899F890E948A1B4D
:10140000DC01CB01998F888F888D998D9D8F8C8F72
:101410008C8D9D8D8C01F8013197F1F78F011D8F17
:101420000C8F88E290E028E230E0F90120812B7FE8
:10143000FC0120836E960FB6F894DEBF0FBECDBFC1
:10144000DF91CF911F910F9108950F931F93CF9329
:10145000DF93CDB7DEB76E970FB6F894DEBF0FBE41
:10146000CDBF8E8F8E8D89838981807F898388E22D
:1014700090E028E230E0F90120812F70FC01208308
:1014800088E290E028E230E0F90130812981232BC5
:10149000FC01208388E290E028E230E0F90120811D
:1014A0002160FC01208388E290E028E230E0F9012D
:1014B00020812D7FFC01208388E290E028E230E04B
:1014C000F90120812460FC01208380E090E0A0EA03
:1014D000B0E48A839B83AC83BD836A817B818C81EA
:1014E0009D8126E636E646E655E40E946C1CDC014A
:1014F000CB018E839F83A887B98711E06E817F819E
:101500008885998520E030E040E85FE30E941E1B5B
:1015100088230CF010E0112329F081E090E09B87F4
:101520008A8746C011E06E817F818885998520E099
:101530003FEF4FE757E40E94681C18160CF010E0CC
:10154000112361F16A817B818C819D8120E030E0F3
:1015500040E251E40E946C1CDC01CB01BC01CD01D6
:101560000E948A1BDC01CB019B878A8712C080E71F
:1015700091E09D878C878C859D858C01C8010197A2
:10158000F1F78C011D870C878A859B8501979B87C6
:101590008A878A859B85009751F717C06E817F8166
:1015A000888599850E948A1BDC01CB019B878A87ED
:1015B0008A859B859F878E878E859F858C01F80104
:1015C0003197F1F78F011F870E8788E290E028E2BC
:1015D00030E0F90120812B7FFC0120838E8D8F70FC
:1015E0008E8F8E8D8295807F8E8F88E290E028E2AC
:1015F00030E0F90120812F70FC01208388E290E027
:1016000028E230E0F90130812E8D232BFC0120836C
:1016100088E290E028E230E0F90120812160FC01BD
:10162000208388E290E028E230E0F90120812D7FDC
:10163000FC01208388E290E028E230E0F90120817B
:101640002460FC01208380E090E0A0EAB0E4888B75
:10165000998BAA8BBB8B688979898A899B8926E6B5
:1016600036E646E655E40E946C1CDC01CB018C8B0F
:101670009D8BAE8BBF8B11E06C897D898E899F8994
:1016800020E030E040E85FE30E941E1B88230CF05E
:1016900010E0112329F081E090E0998F888F46C0F7
:1016A00011E06C897D898E899F8920E03FEF4FE7AB
:1016B00057E40E94681C18160CF010E0112361F129
:1016C000688979898A899B8920E030E040E251E489
:1016D0000E946C1CDC01CB01BC01CD010E948A1B65
:1016E000DC01CB01998F888F12C080E791E09B8F3E
:1016F0008A8F8A8D9B8D8C01C8010197F1F78C012F
:101700001B8F0A8F888D998D0197998F888F888D6F
:10171000998D009751F717C06C897D898E899F89B3
:101720000E948A1BDC01CB01998F888F888D998D4F
:101730009D8F8C8F8C8D9D8D8C01F8013197F1F7E9
:101740008F011D8F0C8F88E290E028E230E0F901D4
:1017500020812B7FFC0120836E960FB6F894DEBFAC
:101760000FBECDBFDF91CF911F910F910895CF9301
:10177000DF93CDB7DEB780E80E949308DF91CF9169
:101780000895CF93DF930F920F92CDB7DEB79A8370
:1017900089830BC089819A81FC0180810E94250A7E
:1017A00089819A8101969A83898389819A81FC0132
:1017B0008081882379F70F900F90DF91CF91089562
:1017C000CF93DF930F920F92CDB7DEB789836A83F1
:1017D0008981882F90E08230910599F083309105BE
:1017E00024F48130910541F01BC08330910571F0E4
:1017F0008430910581F014C08A8181580E94930839
:1018000010C08A8181540E9493080BC08A818D5632
:101810000E94930806C08A818D520E94930801C0DD
:1018200000000F900F90DF91CF910895CF93DF9339
:10183000CDB7DEB727970FB6F894DEBF0FBECDBF8A
:101840008A836B835D834C833F832E8319828A81D5
:10185000882319F08B81882319F40E94B70B04C0E8
:101860008A816B810E94E00B8E819F81853091057A
:1018700019F089818130B1F48C819D8120E137E2BA
:10188000B9010E94CF1C9B01C901C096909315031A
:101890008093140380911403909115030E94250AEC
:1018A00081E089838E819F818430910519F089813F
:1018B000813019F58C819D8128EE33E0B9010E94B9
:1018C000CF1C9B01C901909317038093160380914D
:1018D0001603909117032AE030E0B9010E94CF1C53
:1018E000C0969093220380932103809121039091CD
:1018F00022030E94250A81E089838E819F818330A3
:10190000910519F08981813019F58C819D8124E63A
:1019100030E0B9010E94CF1C9B01C90190931703CD
:101920008093160380911603909117032AE030E00C
:10193000B9010E94CF1CC09690931E0380931D0393
:1019400080911D0390911E030E94250A81E08983E6
:101950008E819F818230910519F08981813019F53E
:101960008C819D812AE030E0B9010E94CF1C9B014F
:10197000C9019093170380931603809116039091E9
:1019800017032AE030E0B9010E94CF1CC096909363
:101990001C0380931B0380911B0390911C030E94E6
:1019A000250A81E089838E819F818130910519F01C
:1019B0008981813091F48C819D812AE030E0B901E8
:1019C0000E94CF1CC0969093200380931F038091A8
:1019D0001F03909120030E94250A8E819F818630EB
:1019E00091051CF085E40E94250A27960FB6F8940D
:1019F000DEBF0FBECDBFDF91CF910895CF93DF93B0
:101A0000CDB7DEB787E290E027E230E0F901208130
:101A1000276FFC01208388E290E028E230E0F901A2
:101A200020812078FC012083DF91CF910895CF930E
:101A3000DF93CDB7DEB780E390E0FC01108281E355
:101A400090E0FC01108287E091E0FC01108288E0C8
:101A500091E0FC011082DF91CF910895CF93DF9345
:101A6000CDB7DEB781E290E021E230E0F9012081DC
:101A70002F60FC01208382E290E022E230E0F90155
:101A80002081207FFC0120838AE091E02AE031E080
:101A9000F90120812861FC0120838BE091E02BE09B
:101AA00031E0F90120812861FC012083DF91CF9191
:101AB0000895CF93DF93CDB7DEB70E94FE0C80E68A
:101AC0009EE0FC01199589E79EE0FC0119950E94B2
:101AD000170D0E942E0DDF91CF910895CF93DF93C4
:101AE000CDB7DEB781E291E0FC01108285E291E0A2
:101AF0002FEFFC01208384E291E021E0FC012083B0
:101B000089E291E0FC01108288E291E02FEFFC0174
:101B100020838BE291E0FC0110828AE291E02FEFBA
:101B2000FC0120838DE291E0FC0110828CE291E0C7
:101B30002FEFFC01208380E291E029EAFC01208361
:101B400081E291E02BE0FC012083DF91CF910895A9
:101B5000CF93DF93CDB7DEB78AE790E0FC01108228
:101B60008BE790E0FC0110828CE790E020E2FC0122
:101B7000208380E590E020E8FC0120838AE790E064
:101B800026E8FC012083DF91CF910895CF93DF9366
:101B90000F920F92CDB7DEB78A838A81883028F002
:101BA0008BE790E028E0FC0120838A8187708A839C
:101BB0008CE790E02A812062FC0120838AE790E094
:101BC0002AE730E0F90120812064FC012083000035
:101BD0008AE790E0FC018081882F90E0807190700E
:101BE0000097B1F389E790E0FC01808189838AE75F
:101BF00090E02AE730E0F90120812061FC01208398
:101C00008BE790E0FC01108289810F900F90DF91AB
:101C1000CF910895CF93DF9300D0CDB7DEB78983FE
:101C20006A834B838B810E94C60D80931803809139
:101C30001803282F30E089816A81A90123E030E070
:101C40000E94160C0F900F900F90DF91CF91089586
:101C5000CF93DF930F920F92CDB7DEB789836A835C
:101C600088E291E02981FC0120838AE291E02A81C7
:101C7000FC0120830F900F90DF91CF910895CF93B7
:101C8000DF930F920F92CDB7DEB78A8319828A81D4
:101C90008F708A8382E290E0FC0180818983898150
:101CA000807F898399818A81892B898382E290E070
:101CB0002981FC0120830F900F90DF91CF9108952F
:101CC000CF93DF93CDB7DEB78DE290E02DE230E029
:101CD000F90120812F7EFC0120838EE290E02EE22C
:101CE00030E0F90120812061FC012083DF91CF9158
:101CF0000895CF93DF93CDB7DEB78DE290E02DE26C
:101D000030E0F90120812F7DFC0120838EE290E0FC
:101D10002EE230E0F90120812062FC012083DF9176
:101D2000CF910895CF93DF93CDB7DEB7F8948AE6CD
:101D300090E02AE630E0F90120812260FC01208356
:101D40008DE390E02DE330E0F90120812061FC017A
:101D500020837894DF91CF910895CF93DF93CDB70F
:101D6000DEB7F8948AE690E02AE630E0F9012081B7
:101D70002860FC0120838DE390E02DE330E0F90141
:101D800020812062FC0120837894DF91CF91089517
:101D90001F920F920FB60F9211248F939F93AF93C0
:101DA000BF93CF93DF93CDB7DEB78091A002909120
:101DB000A102A091A202B091A3020196A11DB11DA2
:101DC0008093A0029093A102A093A202B093A302D9
:101DD000DF91CF91BF91AF919F918F910F900FBEE7
:101DE0000F901F9018951F920F920FB60F9211240B
:101DF0008F939F93AF93BF93CF93DF93CDB7DEB70E
:101E000080919C0290919D02A0919E02B0919F02B0
:101E10000196A11DB11D80939C0290939D02A093F9
:101E20009E02B0939F02DF91CF91BF91AF919F919E
:101E30008F910F900FBE0F901F901895CF93DF9347
:101E4000CDB7DEB72A970FB6F894DEBF0FBECDBF71
:101E50009A87898780E090E0DC0189839A83AB834D
:101E6000BC831D821E821F82188689859A85CC01BB
:101E7000A0E0B0E0BC01CD010E94B61BDC01CB01AB
:101E8000BC01CD0125EE30ED4AEA50E40E94221B50
:101E9000DC01CB0189839A83AB83BC8369817A811E
:101EA0008B819C810E948A1BDC01CB018D839E83E8
:101EB000AF83B8871092A0021092A1021092A202E2
:101EC0001092A30201C000002091A0023091A10253
:101ED0004091A2025091A3028D819E81AF81B8856D
:101EE00082179307A407B50770F700008FEE90E103
:101EF000FC0119952A960FB6F894DEBF0FBECDBF30
:101F0000DF91CF910895CF93DF93CDB7DEB72A97B6
:101F10000FB6F894DEBF0FBECDBF9A87898780E0E9
:101F200090E0DC0189839A83AB83BC831D821E828F
:101F30001F82188689859A85CC01A0E0B0E0BC019B
:101F4000CD010E94B61BDC01CB01BC01CD0128E410
:101F500031EE42E850E40E94221BDC01CB01898370
:101F60009A83AB83BC8369817A818B819C810E9437
:101F70008A1BDC01CB01CC01A0E0B0E08D839E8305
:101F8000AF83B8871092A0021092A1021092A20211
:101F90001092A30210929C0210929D0210929E0237
:101FA00010929F0201C000002091A0023091A10276
:101FB0004091A2025091A30271E08D819E81AF8178
:101FC000B885281739074A075B0708F470E02091A5
:101FD0009C0230919D0240919E0250919F0261E0CF
:101FE0008D819E81AF81B885281739074A075B0725
:101FF00008F460E0872F862B8823A9F200008FEE7B
:1020000090E1FC0119952A960FB6F894DEBF0FBE39
:10201000CDBFDF91CF910895CF93DF930F920F92B1
:10202000CDB7DEB79A83898381E290E1FC011995EF
:1020300089819A810E941E0F0F900F90DF91CF919E
:102040000895CF93DF93CDB7DEB786E00E943F0EB1
:10205000DF91CF910895CF93DF93CDB7DEB785E0C1
:102060000E943F0EDF91CF910895CF93DF93CDB7BC
:10207000DEB784E00E943F0EDF91CF910895CF93A9
:10208000DF930F920F92CDB7DEB79A8389830E94B8
:102090002B1089819A810E94830F0F900F90DF91FE
:1020A000CF910895CF93DF93CDB7DEB783E00E9441
:1020B000C60D8093970282E00E94C60D809398021D
:1020C00081E00E94C60D8093990280919702893128
:1020D00040F480919902893120F4809198028A31EC
:1020E00038F488EC68EC0E94280E0E942B10DECF9A
:1020F0000000DF91CF910895CF93DF93CDB7DEB786
:102100008CE390E00E940C1086E490E00E943F1067
:102110000E945210DF91CF910895CF93DF93CDB7F6
:10212000DEB78AE00E943F0EDF91CF910895CF93F2
:10213000DF93CDB7DEB782E00E943F0EDF91CF91F3
:102140000895CF93DF930F920F92CDB7DEB79A83A6
:1021500089830E948D1089819A810E94830F0F903C
:102160000F90DF91CF910895CF93DF93CDB7DEB776
:1021700083E00E94C60D8093970282E00E94C60D04
:102180008093980281E00E94C60D8093990280910D
:102190009702893140F480919902893120F480912D
:1021A00098028A3138F488EC68EC0E94280E0E946C
:1021B0008D10DECF0000DF91CF910895CF93DF9394
:1021C000CDB7DEB78CE390E00E940C1086E490E07F
:1021D0000E94A1100E94B410DF91CF910895CF9377
:1021E000DF93CDB7DEB780E00E943F0EDF91CF9145
:1021F0000895CF93DF93CDB7DEB7F8940E94590DC1
:102200000E94A80D0E946E0D0E94F7010E94ED072A
:102210000E94920E0E94AD0E7894DF91CF910895A6
:10222000CF93DF93CDB7DEB701C0000010929502C7
:102230001092940283E00E94C60D8093970282E080
:102240000E94C60D8093980281E00E94C60D809383
:1022500099020E942110809197028A3180F080912A
:102260009802893160F480919902893140F40E948A
:10227000EF108CED6AEF0E94280E0E9435108091BD
:1022800097028931A0F4809198028A3180F0809180
:102290009902893160F48AEF6AEF0E94280E0E9449
:1022A000211082E090E090939502809394028091B7
:1022B0009702893180F480919802893160F480918D
:1022C00099028A3140F00E94EF108AEF6CED0E9473
:1022D000280E0E949710809197028A3120F08091F9
:1022E00098028A3150F4809199028A3108F49DCF86
:1022F000809198028A3108F498CF80919C02909145
:102300009D02A0919E02B0919F028D339105A1057F
:10231000B10570F48091A0029091A102A091A20257
:10232000B091A3028D339105A105B10508F47DCFCD
:1023300080919A0290919B02019690939B028093C8
:102340009A021092A0021092A1021092A202109280
:10235000A30210929C0210929D0210929E02109273
:102360009F0281E062E00E94E00B80E092E00E9428
:10237000C10B20919A0230919B0281E063E0A90198
:1023800022E030E00E94160C0E94EF100000DF9166
:10239000CF910895CF93DF93CDB7DEB701C0000092
:1023A00083E00E94C60D8093970282E00E94C60DD2
:1023B0008093980281E00E94C60D809399020E944A
:1023C000211080919702893220F080919802893201
:1023D00040F480919902893210F3809198028932F9
:1023E000F0F280919C0290919D02A0919E02B0918A
:1023F0009F0280319105A105B10568F48091A0028A
:102400009091A102A091A202B091A3028031910506
:10241000A105B10520F21092A0021092A102109223
:10242000A2021092A30210929C0210929D0210929E
:102430009E0210929F020E94EF100000DF91CF9148
:102440000895CF93DF93CDB7DEB728970FB6F894F2
:10245000DEBF0FBECDBF98878F838F8198859E8307
:102460008D831A8219821C821B821A8219825AC099
:102470001C821B824CC089819A819C01220F331FD0
:10248000220F331F220F331F8B819C81820F931FDA
:10249000880F991F845F9D4FFC01208131818D81C0
:1024A0009E812817390771F589819A819093AD0231
:1024B0008093AC028B819C819093AF028093AE029B
:1024C000209108023091090289819A81AC01440F60
:1024D000551F440F551F440F551F8B819C81840F3E
:1024E000951F880F991F845F9D4FFC0131832083C6
:1024F00080910802909109020196909309028093BD
:1025000008020BC08B819C8101969C838B838B81FD
:102510009C81883091050CF4AECF89819A81019617
:102520009A83898389819A81883091050CF4A0CFA0
:1025300028960FB6F894DEBF0FBECDBFDF91CF91C6
:102540000895CF93DF93CDB7DEB728970FB6F894F1
:10255000DEBF0FBECDBF9E838D8378876F831A82C7
:1025600019821C821B828D819E819A8389838F812F
:1025700098859C838B8389819A8101979C01220F86
:10258000331F220F331F220F331F8B819C81820F39
:10259000931F880F991F845F9D4FFC01808191815B
:1025A0008B309105F9F489819A8101972091080275
:1025B00030910902AC01440F551F440F551F440FC1
:1025C000551F8B819C81840F951F880F991F845FF5
:1025D0009D4FFC013183208381E090E09093A9021C
:1025E0008093A8028B819C81019729813A81220FD7
:1025F000331F220F331F220F331F820F931F880FA9
:10260000991F845F9D4FFC01808191818B309105E2
:10261000F1F48B819C81019720910802309109028D
:1026200049815A81440F551F440F551F440F551FB0
:10263000840F951F880F991F845F9D4FFC01318384
:10264000208381E090E09093A9028093A8028B817F
:102650009C81019629813A81220F331F220F331F5B
:10266000220F331F820F931F880F991F845F9D4F86
:10267000FC01808191818B309105F1F48B819C81EB
:102680000196209108023091090249815A81440F34
:10269000551F440F551F440F551F840F951F880F5A
:1026A000991F845F9D4FFC013183208381E090E07E
:1026B0009093A9028093A80289819A8101969C0136
:1026C000220F331F220F331F220F331F8B819C8158
:1026D000820F931F880F991F845F9D4FFC0180819B
:1026E00091818B309105F9F489819A81019620912D
:1026F000080230910902AC01440F551F440F551FC9
:10270000440F551F8B819C81840F951F880F991F43
:10271000845F9D4FFC013183208381E090E09093A2
:10272000A9028093A80228960FB6F894DEBF0FBEC8
:10273000CDBFDF91CF910895CF93DF93CDB7DEB7B3
:1027400028970FB6F894DEBF0FBECDBF98878F8352
:102750008F8198859E838D831A8219821C821B82A9
:102760001A82198232C01C821B8225C089819A81FB
:102770009C01220F331F220F331F220F331F8B8127
:102780009C81820F931F880F991F845F9D4FFC01CE
:10279000208131818D819E812817390739F4898103
:1027A0009A812B813C81B9010E94A1128B819C816D
:1027B00001969C838B838B819C8188309105B4F238
:1027C00089819A8101969A83898389819A81883047
:1027D00091054CF280910A0290910B020196909320
:1027E0000B0280930A028091A8029091A902813085
:1027F0009105D1F48091AA029091AB020097A1F4C7
:102800001092A9021092A8028091080290910902E8
:10281000019690930902809308028091080290919A
:10282000090201970E949C1328960FB6F894DEBF08
:102830000FBECDBFDF91CF910895CF93DF9300D02E
:10284000CDB7DEB78B831A8219828B81882F90E0F7
:102850008733910509F472C088339105BCF4833342
:10286000910509F443C0843391053CF4813391050B
:1028700049F18233910581F16BC08533910509F4EB
:1028800049C0863391050CF04FC03AC0843491059D
:10289000E1F18534910554F48234910511F18334CA
:1028A00091054CF58134910591F052C08634910523
:1028B00009F43FC08634910594F18734910509F4F9
:1028C00042C046C081E090E09A83898343C081E0A2
:1028D00090E09A8389833EC082E090E09A83898366
:1028E00039C082E090E09A83898334C083E090E02D
:1028F0009A8389832FC083E090E09A8389832AC0DA
:1029000084E090E09A83898325C084E090E09A83F4
:10291000898320C085E090E09A8389831BC085E08D
:1029200090E09A83898316C086E090E09A83898339
:1029300011C086E090E09A8389830CC087E090E024
:102940009A83898307C087E090E09A83898302C0D5
:102950001A82198289819A810F900F900F90DF91CE
:10296000CF910895CF93DF9300D00F92CDB7DEB70C
:102970009A8389837C836B8389819A819C01220F4E
:10298000331F220F331F220F331F8B819C81820F35
:10299000931F880F991F845F9D4F2AE030E0FC0150
:1029A0003183208329813A8182E068E0A90121E016
:1029B00030E00E94160C2B813C8182E069E0A90185
:1029C00021E030E00E94160C0F900F900F900F90B6
:1029D000DF91CF910895CF93DF9300D00F92CDB7C1
:1029E000DEB79A8389837C836B8389819A819093F4
:1029F000AD028093AC028B819C819093AF02809357
:102A0000AE02209108023091090289819A81AC01BD
:102A1000440F551F440F551F440F551F8B819C8138
:102A2000840F951F880F991F845F9D4FFC01318390
:102A300020838091080290910902019690930902E7
:102A40008093080229813A8182E065E0A90121E0B2
:102A500030E00E94160C2B813C8182E066E0A901E7
:102A600021E030E00E94160C0F900F900F900F9015
:102A7000DF91CF910895CF93DF9300D00F92CDB720
:102A8000DEB79A8389837C836B8389819A81909353
:102A90000302809302028B819C81909305028093B4
:102AA00004020F900F900F900F90DF91CF91089537
:102AB000CF93DF9300D00F92CDB7DEB70E94F9100D
:102AC0000E94EF108091A4029091A502009741F41A
:102AD0000E94CA1181E090E09093A5028093A40225
:102AE0001A8219821C821B8284E190E09093090271
:102AF000809308021A8219823FC01C821B8232C056
:102B000089819A819C01220F331F220F331F220FCC
:102B1000331F8B819C81820F931F880F991F845FC5
:102B20009D4FFC01808191818A309105B1F08981AE
:102B30009A819C01220F331F220F331F220F331F54
:102B40008B819C81820F931F880F991F845F9D4FFB
:102B50002BE030E0FC01318320838B819C81019646
:102B60009C838B838B819C81883091054CF2898179
:102B70009A8101969A83898389819A818830910507
:102B80000CF4BBCF0F900F900F900F90DF91CF916F
:102B90000895CF93DF9300D00F92CDB7DEB7209189
:102BA0000202309103028091040290910502220FEB
:102BB000331F220F331F220F331F820F931F880FE3
:102BC000991F845F9D4FFC01808191819093A702A2
:102BD0008093A6021A8219821DC28091A60290914A
:102BE000A70201979093A7028093A6028091020208
:102BF000909103029C0121503040809104029091F9
:102C00000502220F331F220F331F220F331F820FA3
:102C1000931F880F991F845F9D4FFC012081318194
:102C20008091A6029091A7022817390709F063C086
:102C300080910602909107028130910561F48981AB
:102C40009A81880F991F80559D4F21E030E0FC014B
:102C50003183208338C08091060290910702823030
:102C6000910561F489819A81880F991F80559D4F44
:102C700028E030E0FC013183208325C080910602EA
:102C8000909107028830910561F489819A81880FBB
:102C9000991F80559D4F22E030E0FC013183208355
:102CA00012C080910602909107028430910559F478
:102CB00089819A81880F991F80559D4F24E030E0CB
:102CC000FC013183208381E090E0909307028093A0
:102CD00006028091020290910302019790930302F1
:102CE0008093020280910402909105029093050264
:102CF000809304028AC120910202309103028091E4
:102D00000402909105020196220F331F220F331FF8
:102D1000220F331F820F931F880F991F845F9D4FCF
:102D2000FC01208131818091A6029091A702281791
:102D3000390709F063C08091060290910702813043
:102D4000910561F489819A81880F991F80559D4F63
:102D500022E030E0FC013183208338C080910602FC
:102D6000909107028230910561F489819A81880FE0
:102D7000991F80559D4F21E030E0FC013183208375
:102D800025C080910602909107028430910561F47C
:102D900089819A81880F991F80559D4F28E030E0E6
:102DA000FC013183208312C08091060290910702BA
:102DB0008830910559F489819A81880F991F80552F
:102DC0009D4F24E030E0FC013183208382E090E0DD
:102DD0009093070280930602809102029091030271
:102DE0009093030280930202809104029091050265
:102DF0000196909305028093040207C1809102021C
:102E0000909103029C012F5F3F4F809104029091AB
:102E10000502220F331F220F331F220F331F820F91
:102E2000931F880F991F845F9D4FFC012081318182
:102E30008091A6029091A7022817390709F063C074
:102E400080910602909107028230910561F4898198
:102E50009A81880F991F80559D4F22E030E0FC0138
:102E60003183208338C0809106029091070284301C
:102E7000910561F489819A81880F991F80559D4F32
:102E800021E030E0FC013183208325C080910602DF
:102E9000909107028830910561F489819A81880FA9
:102EA000991F80559D4F28E030E0FC01318320833D
:102EB00012C080910602909107028130910559F469
:102EC00089819A81880F991F80559D4F24E030E0B9
:102ED000FC013183208384E090E09093070280938B
:102EE00006028091020290910302019690930302E0
:102EF0008093020280910402909105029093050252
:102F00008093040282C020910202309103028091DA
:102F10000402909105020197220F331F220F331FE5
:102F2000220F331F820F931F880F991F845F9D4FBD
:102F3000FC01208131818091A6029091A70228177F
:102F4000390709F062C08091060290910702813032
:102F5000910561F489819A81880F991F80559D4F51
:102F600028E030E0FC013183208338C080910602E4
:102F7000909107028430910561F489819A81880FCC
:102F8000991F80559D4F22E030E0FC013183208362
:102F900025C080910602909107028830910561F466
:102FA00089819A81880F991F80559D4F21E030E0DB
:102FB000FC013183208312C08091060290910702A8
:102FC0008230910559F489819A81880F991F805523
:102FD0009D4F24E030E0FC013183208388E090E0C5
:102FE000909307028093060280910202909103025F
:102FF0009093030280930202809104029091050253
:103000000197909305028093040289819A81019629
:103010009A8389838091A6029091A70284319105B9
:1030200009F0DBCD1C821B821C821B826EC08B814F
:103030009C81880F991F80559D4FFC018081918153
:103040008130910569F481E061E00E94E00B8CE839
:1030500092E00E94C10B0E94EF100E94101150C01C
:103060008B819C81880F991F80559D4FFC01808129
:1030700091818230910569F481E061E00E94E00B6A
:103080008EE892E00E94C10B0E94DE100E94101197
:1030900037C08B819C81880F991F80559D4FFC0103
:1030A000808191818830910569F481E061E00E941E
:1030B000E00B80E992E00E94C10B0E947C100E940C
:1030C00010111EC08B819C81880F991F80559D4FC8
:1030D000FC01808191818430910591F481E061E06F
:1030E0000E94E00B82E992E00E94C10B0E94EF1067
:1030F0008FEA90E00E943F100E9452100E9410112F
:103100008B819C8101969C838B832B813C8189815F
:103110009A81281739070CF48ACF0F900F900F90DF
:103120000F90DF91CF9108950F931F93CF93DF936B
:1031300000D00F92CDB7DEB789836A834B832C838F
:103140000E9458158981082F10E08A810E941D1461
:103150009C01C801B9010E94EB148B81082F10E07B
:103160008C810E941D149C01C801B9010E94B214F7
:10317000809108029091090201970E949C130E947D
:10318000C9158091AC029091AD022091AE023091B0
:10319000AF02B9010E943B150F900F900F900F9056
:1031A000DF91CF911F910F9108950F931F93CF93AC
:1031B000DF93CDB7DEB7E8970FB6F894DEBF0FBE4A
:1031C000CDBF85E064E446E024E40E9494180E94A8
:1031D000AE0080E090E0AAEFB3E489839A83AB83EA
:1031E000BC8369817A818B819C8126E636E646E63E
:1031F00055E40E946C1CDC01CB018D839E83AF8360
:10320000B88711E06D817E818F81988520E030E064
:1032100040E85FE30E941E1B88230CF010E011239E
:1032200029F081E090E09A87898746C011E06D819E
:103230007E818F81988520E03FEF4FE757E40E9421
:10324000681C18160CF010E0112361F169817A8175
:103250008B819C8120E030E040E251E40E946C1CB4
:10326000DC01CB01BC01CD010E948A1BDC01CB013A
:103270009A87898712C080E791E09C878B878B852E
:103280009C858C01C8010197F1F78C011C870B8785
:1032900089859A8501979A87898789859A85009774
:1032A00051F717C06D817E818F8198850E948A1B9E
:1032B000DC01CB019A87898789859A859E878D87CE
:1032C0008D859E858C01C8010197F1F78C011E87C1
:1032D0000D870E94C50082E066E442E024E40E947B
:1032E00094180E94AE0080E090E0AAEFB3E48F87CC
:1032F000988BA98BBA8B6F85788989899A8926E6FC
:1033000036E646E655E40E946C1CDC01CB018B8B53
:103310009C8BAD8BBE8B11E06B897C898D899E89DE
:1033200020E030E040E85FE30E941E1B88230CF0A1
:1033300010E0112329F081E090E0988F8F8B46C038
:1033400011E06B897C898D899E8920E03FEF4FE7F2
:1033500057E40E94681C18160CF010E0112361F16C
:103360006F85788989899A8920E030E040E251E4CC
:103370000E946C1CDC01CB01BC01CD010E948A1BA8
:10338000DC01CB01988F8F8B12C080E791E09A8F80
:10339000898F898D9A8D8C01C8010197F1F78C0175
:1033A0001A8F098F8F89988D0197988F8F8B8F89AE
:1033B000988D009751F717C06B897C898D899E89FC
:1033C0000E948A1BDC01CB01988F8F8B8F89988D8F
:1033D0009C8F8B8F8B8D9C8D8C01C8010197F1F791
:1033E0008C011C8F0B8F0E94C50082E061E442E0DB
:1033F00023E40E9494180E94AE0080E090E0AAEFBF
:10340000B3E48D8F9E8FAF8FB8A36D8D7E8D8F8D22
:1034100098A126E636E646E655E40E946C1CDC01DF
:10342000CB0189A39AA3ABA3BCA311E069A17AA1A4
:103430008BA19CA120E030E040E85FE30E941E1BCE
:1034400088230CF010E0112329F081E090E09EA386
:103450008DA346C011E069A17AA18BA19CA120E0B7
:103460003FEF4FE757E40E94681C18160CF010E07D
:10347000112361F16D8D7E8D8F8D98A120E030E05C
:1034800040E251E40E946C1CDC01CB01BC01CD0187
:103490000E948A1BDC01CB019EA38DA312C080E792
:1034A00091E098A78FA38FA198A58C01C8010197DF
:1034B000F1F78C0118A70FA38DA19EA101979EA3E0
:1034C0008DA38DA19EA1009751F717C069A17AA184
:1034D0008BA19CA10E948A1BDC01CB019EA38DA322
:1034E0008DA19EA19AA789A789A59AA58C01C8013B
:1034F0000197F1F78C011AA709A70E94C50085E082
:1035000062E442E024E40E9494180E94AE0080E04D
:1035100090E0AAEFB3E48BA79CA7ADA7BEA76BA5CD
:103520007CA58DA59EA526E636E646E655E40E94D6
:103530006C1CDC01CB018FA798ABA9ABBAAB11E037
:103540006FA578A989A99AA920E030E040E85FE357
:103550000E941E1B88230CF010E0112329F081E04B
:1035600090E09CAB8BAB46C011E06FA578A989A910
:103570009AA920E03FEF4FE757E40E94681C181615
:103580000CF010E0112361F16BA57CA58DA59EA523
:1035900020E030E040E251E40E946C1CDC01CB01F1
:1035A000BC01CD010E948A1BDC01CB019CAB8BAB23
:1035B00012C080E791E09EAB8DAB8DA99EA98C01D6
:1035C000C8010197F1F78C011EAB0DAB8BA99CA92B
:1035D00001979CAB8BAB8BA99CA9009751F717C0A7
:1035E0006FA578A989A99AA90E948A1BDC01CB0141
:1035F0009CAB8BAB8BA99CA998AF8FAB8FA998ADD7
:103600008C01C8010197F1F78C0118AF0FAB0E9434
:10361000C50084E062E444E021E40E9494180E9422
:10362000AE0080E090E0E8960FB6F894DEBF0FBEE3
:10363000CDBFDF91CF911F910F910895D4D008F4A1
:1036400081E008950CD00AC102D140F0F9D030F0E9
:1036500021F45F3F19F0EBC0511134C1EEC00FD11E
:1036600098F39923C9F35523B1F3951B550BBB2749
:10367000AA2762177307840738F09F5F5F4F220FF6
:10368000331F441FAA1FA9F333D00E2E3AF0E0E8EF
:1036900030D091505040E695001CCAF729D0FE2F3B
:1036A00027D0660F771F881FBB1F261737074807CD
:1036B000AB07B0E809F0BB0B802DBF01FF27935883
:1036C0005F4F2AF09E3F510568F0B1C0FBC05F3FDD
:1036D000ECF3983EDCF3869577956795B795F7956B
:1036E0009F5FC9F7880F911D9695879597F9089563
:1036F000E1E0660F771F881FBB1F621773078407FF
:10370000BA0720F0621B730B840BBA0BEE1F88F70D
:10371000E0950895BCD088F09F5790F0B92F992775
:10372000B751A0F0D1F0660F771F881F991F1AF0CC
:10373000BA95C9F712C0B13081F0C3D0B1E0089595
:10374000C0C0672F782F8827B85F39F0B93FCCF316
:10375000869577956795B395D9F73EF490958095C2
:10376000709561957F4F8F4F9F4F0895E89409C0E2
:1037700097FB3EF490958095709561957F4F8F4FA4
:103780009F4F9923A9F0F92F96E9BB279395F695BA
:10379000879577956795B795F111F8CFFAF4BB0F38
:1037A00011F460FF1BC06F5F7F4F8F4F9F4F16C09C
:1037B000882311F096E911C0772321F09EE8872F26
:1037C000762F05C0662371F096E8862F70E060E0E2
:1037D0002AF09A95660F771F881FDAF7880F96955B
:1037E000879597F90895990F0008550FAA0BE0E8FF
:1037F000FEEF16161706E807F907C0F012161306B3
:10380000E407F50798F0621B730B840B950B39F4F2
:103810000A2661F0232B242B252B21F408950A2658
:1038200009F4A140A6958FEF811D811D089597F998
:103830009F6780E870E060E008959FEF80EC089556
:1038400000240A941616170618060906089500247F
:103850000A9412161306140605060895092E0394F9
:10386000000C11F4882352F0BB0F40F4BF2B11F46D
:1038700060FF04C06F5F7F4F8F4F9F4F089557FDCC
:103880009058440F551F59F05F3F71F04795880FCE
:1038900097FB991F61F09F3F79F087950895121665
:1038A00013061406551FF2CF4695F1DF08C0161611
:1038B00017061806991FF1CF8695710561050894C2
:1038C0000895E894BB2766277727CB0197F90895D9
:1038D0008ADF08F48FEF08950BD0C0CFB1DF28F056
:1038E000B6DF18F0952309F0A2CFA7CF1124EACFB5
:1038F000C6DFA0F3959FD1F3950F50E0551F629F4F
:10390000F001729FBB27F00DB11D639FAA27F00D38
:10391000B11DAA1F649F6627B00DA11D661F829F5F
:103920002227B00DA11D621F739FB00DA11D621F44
:10393000839FA00D611D221F749F3327A00D611D61
:10394000231F849F600D211D822F762F6A2F112443
:103950009F5750408AF0E1F088234AF0EE0FFF1F96
:10396000BB1F661F771F881F91505040A9F79E3FCD
:10397000510570F05CCFA6CF5F3FECF3983EDCF3CF
:10398000869577956795B795F795E7959F5FC1F70A
:10399000FE2B880F911D9695879597F90895AA1B80
:1039A000BB1B51E107C0AA1FBB1FA617B70710F02A
:1039B000A61BB70B881F991F5A95A9F7809590955C
:0A39C000BC01CD010895F894FFCF7B
:1039CA003A00070004000100140001000A000A007E
:1039DA000A000A000A000A000A000A000A000B008C
:1039EA000B000A000B000B000B000B000A000B0077
:1039FA000B000B000A000B000B000B000A000B0067
:103A0A000B000B000B000B000B000B000A000B0055
:103A1A000A000A000A000A000B000B000A000B0049
:103A2A000B000B000F000B000A000B000A000B0032
:103A3A000B000B000A000B000B000B000A000B0026
:103A4A000B000B000B000B000B000B0031003200C7
:043A5A0038003400FC
:00000001FF
